{
  "contractName": "Book",
  "abi": [
    {
      "inputs": [
        {
          "internalType": "uint256",
          "name": "",
          "type": "uint256"
        }
      ],
      "name": "people_xiazhaoxuan",
      "outputs": [
        {
          "internalType": "address",
          "name": "",
          "type": "address"
        }
      ],
      "stateMutability": "view",
      "type": "function",
      "constant": true
    },
    {
      "stateMutability": "payable",
      "type": "receive",
      "payable": true
    },
    {
      "inputs": [
        {
          "internalType": "uint256",
          "name": "id",
          "type": "uint256"
        }
      ],
      "name": "borrowBook",
      "outputs": [
        {
          "internalType": "uint256",
          "name": "",
          "type": "uint256"
        }
      ],
      "stateMutability": "nonpayable",
      "type": "function"
    },
    {
      "inputs": [
        {
          "internalType": "uint256",
          "name": "id",
          "type": "uint256"
        }
      ],
      "name": "returnBook",
      "outputs": [
        {
          "internalType": "uint256",
          "name": "",
          "type": "uint256"
        }
      ],
      "stateMutability": "nonpayable",
      "type": "function"
    },
    {
      "inputs": [],
      "name": "getBorrower",
      "outputs": [
        {
          "internalType": "address[10]",
          "name": "",
          "type": "address[10]"
        }
      ],
      "stateMutability": "view",
      "type": "function",
      "constant": true
    }
  ],
  "bytecode": "0x608060405234801561001057600080fd5b50610529806100206000396000f3fe6080604052600436106100435760003560e01c80631cb0c3e71461004f5780637e490a9e1461007a578063ca5140c9146100b7578063cf771198146100f45761004a565b3661004a57005b600080fd5b34801561005b57600080fd5b50610064610131565b604051610071919061043c565b60405180910390f35b34801561008657600080fd5b506100a1600480360381019061009c919061035c565b6101b2565b6040516100ae9190610458565b60405180910390f35b3480156100c357600080fd5b506100de60048036038101906100d9919061035c565b610250565b6040516100eb9190610458565b60405180910390f35b34801561010057600080fd5b5061011b6004803603810190610116919061035c565b6102ee565b6040516101289190610421565b60405180910390f35b610139610324565b6000600a806020026040519081016040528092919082600a80156101a8576020028201915b8160009054906101000a900473ffffffffffffffffffffffffffffffffffffffff1673ffffffffffffffffffffffffffffffffffffffff168152602001906001019080831161015e575b5050505050905090565b60008082101580156101c55750600a8211155b6101ce57600080fd5b33600083600a8110610209577f4e487b7100000000000000000000000000000000000000000000000000000000600052603260045260246000fd5b0160006101000a81548173ffffffffffffffffffffffffffffffffffffffff021916908373ffffffffffffffffffffffffffffffffffffffff160217905550819050919050565b60008082101580156102635750600a8211155b61026c57600080fd5b60008083600a81106102a7577f4e487b7100000000000000000000000000000000000000000000000000000000600052603260045260246000fd5b0160006101000a81548173ffffffffffffffffffffffffffffffffffffffff021916908373ffffffffffffffffffffffffffffffffffffffff160217905550819050919050565b600081600a81106102fe57600080fd5b016000915054906101000a900473ffffffffffffffffffffffffffffffffffffffff1681565b604051806101400160405280600a90602082028036833780820191505090505090565b600081359050610356816104dc565b92915050565b60006020828403121561036e57600080fd5b600061037c84828501610347565b91505092915050565b6000610391838361039d565b60208301905092915050565b6103a6816104a0565b82525050565b6103b5816104a0565b82525050565b6103c48161047d565b6103ce8184610495565b92506103d982610473565b8060005b8381101561040a5781516103f18782610385565b96506103fc83610488565b9250506001810190506103dd565b505050505050565b61041b816104d2565b82525050565b600060208201905061043660008301846103ac565b92915050565b60006101408201905061045260008301846103bb565b92915050565b600060208201905061046d6000830184610412565b92915050565b6000819050919050565b6000600a9050919050565b6000602082019050919050565b600081905092915050565b60006104ab826104b2565b9050919050565b600073ffffffffffffffffffffffffffffffffffffffff82169050919050565b6000819050919050565b6104e5816104d2565b81146104f057600080fd5b5056fea2646970667358221220866177c29f25602cc42eb836bcc12e0b67b752e3bb38d147aa6fb536e85a6bfa64736f6c63430008000033",
  "immutableReferences": {},
  "source": "// SPDX-License-Identifier: MIT\npragma solidity ^0.8.0;\n\ncontract Book {\n    address[10] public people_xiazhaoxuan;\n    receive () payable external{\n    }\n\n    function borrowBook(uint id) public returns (uint) {\n        require(id >= 0 && id <= 10);\n        people_xiazhaoxuan[id] = msg.sender;\n        return id;\n    }\n\n    function returnBook(uint id) public returns (uint) {\n        require(id >= 0 && id <= 10);\n        people_xiazhaoxuan[id] = 0x0000000000000000000000000000000000000000;\n        return id;\n    }\n    \n    function getBorrower() public view returns (address[10] memory) {\n        return people_xiazhaoxuan;\n    }\n}",
  "sourcePath": "/Users/heyoh/Desktop/B200601/contracts/Book.sol",
  "compiler": {
    "name": "solc",
    "version": "0.8.0+commit.c7dfd78e.Emscripten.clang"
  },
  "schemaVersion": "3.4.3",
  "updatedAt": "2022-01-03T10:25:23.339Z",
  "networkType": "ethereum",
  "devdoc": {
    "kind": "dev",
    "methods": {},
    "version": 1
  },
  "userdoc": {
    "kind": "user",
    "methods": {},
    "version": 1
  }
}